:100000000C94DA020C9421030C9421030C94210328
:100010000C9421030C9421030C9421030C942103D0
:100020000C9421030C9421030C94CB270C94872768
:100030000C94C8280C9421030C9421030C942103E4
:100040000C9421030C9421030C9421030C942103A0
:100050000C9421030C94A4280C9421030C942103E8
:100060000C9421030C9421030C9421030C94210380
:100070000C9421030C9421030C9421030C94210370
:100080000C9421030C9421030C9421030C94210360
:100090000C9421030C9421030C9421030C94210350
:1000A0000C9421030C9421030C94210305010902F3
:1000B000A10185020901A100050919012905150001
:1000C00025019505750181029501750381010501E1
:1000D000093009311581257F950275088106093897
:1000E0001581257F950175088106050C0A380215D2
:1000F00081257F950175088106C0C005010980A191
:1001000001850319012AB700150126B7009501756D
:10011000108100C0050C0901A101850419012AA064
:1001200002150126A002950175108100C005010984
:1001300006A1018506050719E029E71500250195A7
:1001400008750181020507190029EF1500250195A1
:10015000F0750181020508190129059505750191C0
:1001600002950175039101C00660FF0961A10109B3
:1001700062150026FF0095207508810209631500AD
:1001800026FF00952075089102C005010906A1010E
:10019000050719E029E71500250195087501810279
:1001A0009501750881010507190029FF150026FF33
:1001B0000095067508810005081901290595057542
:1001C000019102950175039101C00000000000003B
:1001D000000000000000000000000000000000001F
:1001E00000000000000000000000000000007E0F82
:1001F00000D4FFFFFFC700000078000000000000EF
:1002000000002A2B28000000000000000000000071
:10021000000000000029000000002C1E34202122D4
:1002200024342627252E362D3738271E1F2021223D
:10023000232425263333362E37381F0405060708B6
:10024000090A0B0C0D0E0F101112131415161718A6
:10025000191A1B1C1D2F3130232D350405060708E4
:10026000090A0B0C0D0E0F10111213141516171886
:10027000191A1B1C1D2F3130354CFD377A585A0086
:100280000004E6D6B4460200210116000000742FD7
:10029000E5A3E001E500E65D003D8889C65436C36C
:1002A000174FE4E6BF661AF62D62991F8D47B7B265
:1002B000089AA5753C92541F02CFD2B98C91B247CF
:1002C000072BAD67F5672A6AFCF7F5B15CE413F913
:1002D00094A5C20DE8BFBF265D1E7924F5391E5BCB
:1002E0000856AD1FCA2531C229D43DEF1B02DDC619
:1002F000039190FE31C12EE18F8B5CAAE310594A25
:100300003BFB45CB227AD24CAD62376F04A52CF271
:1003100054D275CFE13FD55333D4EC5D9F0866AA24
:100320003D7B72F98EC2D4EF68801A429BA94B9D27
:10033000D7A3C6EA6A7BFCF3A090C650C45C0FF753
:1003400041E274659C4A945500034BA9530AC7893E
:100350002931F2C356658793D2EF23CA97D0FAEAC0
:1003600071AF7BD0A184BBD3F62CE85CCA6174B2B8
:10037000C4FBFFC4ED051E35926DA77AD6CFB7003A
:10038000000082E4AF845B40236700018202E60341
:100390000000D392BF1BB1C467FB02000000000441
:1003A000595A290014001A000800150017001C00F3
:1003B00018000C00120013004C002B000400160063
:1003C000070009000A000B000D000E000F003300AB
:1003D0002800E1001D001B000600190005001100A7
:1003E00010003600370038000000E000E2002C006A
:1003F00001512A000251E30000000000000000004B
:10040000000035001E001F002000210022002300F4
:1004100024002500260027002F0039004B004A0049
:1004200001000100010001002D002E003300340006
:10043000310001004E004D00010001000100A90043
:10044000AA00A80001000100000001000100010055
:100450000100010001000100000000000000000098
:1004600000000100010083030000020002007F037E
:10047000000003000100840300000400020069037F
:100480000B060500010085030000060002006B0357
:10049000000007000200810300000800010086033D
:1004A0000000090002006D03E6050A0002006F0368
:1004B000E6050B0002007103E6050C000200730361
:1004C000E6050D0002007503E6050E000200770345
:1004D000E6050F0002007903E605100002007B0329
:1004E000E605110002007D03E60512000200870305
:1004F0000000130002008903000009025B000301F1
:1005000000A0FA0904000001030101000921110102
:1005100000012240000705810308000A09040100C8
:100520000203000000092111010001222200070539
:1005300082032000010705030320000109040200D3
:10054000010300000009211101000122BC00070580
:10055000840320000A1201000200000008EEEEB53C
:10056000ED0100010203011C037600690061006CCB
:10057000003A006600360034006300320062003347
:1005800000630000000C0354006800650034003272
:100590000000001A0343006C00610063006B002D33
:1005A00000410074007400610063006B00000004EF
:1005B0000309040011241FBECFEFDAE0DEBFCDBF78
:1005C00004B603FE27C08091810490918204A0911B
:1005D0008304B09184048730904BA740B04BD1F492
:1005E0001092810410928204109283041092840469
:1005F00014BE84B7877F84BF0FB6F894A895809106
:100600006000886180936000109260000FBEE0E09F
:10061000F8E3099511E0A0E0B1E0E0EDF0E602C0FA
:1006200005900D92A437B107D9F724E0A4E7B1E013
:1006300001C01D92A138B207E1F70E94EF280C9487
:1006400034300C940000E8EDF0E080818E7F8083F0
:100650001092E2001092DA001092E100A0EEB0E0F9
:100660008C9181608C9380818F77808319BCA7EDFA
:10067000B0E08C918E7F8C9380818F7E80831092EE
:10068000500408952091E4003091E50095E6A90119
:100690002091EC00822F817020FF06C08091E8003D
:1006A00080FF06C080E008952091E80022FD1AC076
:1006B00080917E04882389F0853089F08091EB0059
:1006C00085FD0FC02091E4003091E50042175307EB
:1006D000F9F29150E1F684E0089582E0089583E014
:1006E000089581E00895EF92FF920F931F93CF93A7
:1006F0007C018B010E944203C82F811117C0809199
:10070000E80085FD0BC08091E8008E778093E800BB
:100710000E944203882399F3C82F08C0F7018191F2
:100720007F018093F1000150110949F78C2FCF917F
:100730001F910F91FF90EF900895CF93FC0180914E
:100740007E04843001F5C091E900CF702091EC0067
:10075000922F917020FD90E8C92B82E08093E900F0
:100760008091E80080FF0CC050E040E060E270E063
:10077000CF010E9473038091E8008E778093E80098
:10078000CF70C093E900CF9108958091760487FFE0
:1007900013C08091E80082FF06C08091E8008B774B
:1007A0008093E80004C080917E048111F2CF089507
:1007B00080917E048823D9F38091E80080FFF8CFF0
:1007C0008091E8008E77ECCF982F9093E900242F4A
:1007D000762F50E0891731F07091EC002091ED00F8
:1007E0005091F00021FD07C09F5F973071F7809313
:1007F000E90081E008953091EB003E7F3093EB00FB
:100800003091ED003D7F3093ED003091EB00316091
:100810003093EB007093EC002093ED005093F000C8
:100820002091EE0027FDE0CF80E00895CF92DF9287
:10083000EF92FF920F931F93CF93DF93C8EDD0E019
:1008400088818F7E8883E7EDF0E0808181608083FE
:1008500084E082BF81E08093500488818E7F88830A
:1008600002EE10E0F80110821092DA0081EEC82E3C
:10087000D12CF601108288818F77888388818068E7
:10088000888388818F7D888319BC10927E041092A2
:100890007504109274041092730490EEE92EF12CFA
:1008A000F70180818B7F808388818160888342E02B
:1008B00060E080E00E94E403F60180818E7F808307
:1008C000F801808181608083808188608083F70166
:1008D00080818E7F8083888180618883DF91CF9142
:1008E0001F910F91FF90EF90DF90CF900895FC0142
:1008F00080917C0490917D0486179707A0F0611584
:10090000710529F49091E8009E779093E80090E0BB
:100910006115710551F4911108C08091E80082FFC2
:1009200034C080E00895BC01F2CF80917E0488231A
:10093000C1F18530C1F18091E80083FD30C0809124
:10094000E80082FDEACF8091E80080FFE1CF80914E
:10095000F3002091F200382F6115710519F028304D
:10096000310558F091E02830310509F090E02091F0
:10097000E8002E772093E800CBCF81918093F1009F
:10098000615071092F5F3F4FE7CF80917E0488232C
:1009900041F0853041F08091E80083FFBECF81E0D7
:1009A000089582E0089583E00895089580915204A7
:1009B000089587E797E7909301088093000888E1FE
:1009C0009AE00FB6F894A895809360000FBE9093BC
:1009D0006000FFCF9C014FB7F8948091470490913D
:1009E0004804A0914904B0914A044FBF821B930B65
:1009F00008952FB7F8948091470490914804A091EE
:100A00004904B0914A042FBF089520911A0122236E
:100A1000C9F020914B0427FF15C0E62FE695E69517
:100A2000E695EE31D8F4E80FF92FF11D677021E05B
:100A300030E001C0220F6A95EAF7209582812823D1
:100A400022830895FC01329608962191621303C017
:100A5000DF0111971C92E817F907B9F70895209163
:100A60001A012223C1F020914B0427FF14C0E62F66
:100A7000E695E695E695EE31F8F4E80FF92FF11DCD
:100A8000677021E030E001C0220F6A95EAF78281A9
:100A9000822B82830895FC0132962FEF30E0419142
:100AA000641751F02F3F19F4411101C0232F3F5F0C
:100AB0003630A9F72F3F09F40895820F911D27FDC5
:100AC0009A95FC0162830895209144043091450475
:100AD0002817390771F09093450480934404E091FE
:100AE0004204F0914304309721F00084F185E02D19
:100AF0000994089520914004309141042817390742
:100B000071F09093410480934004E0914204F0918D
:100B10004304309721F00680F781E02D0994089571
:100B2000E0914204F0914304309721F00190F0816C
:100B3000E02D099480E00895452B39F0682381E089
:100B40006F3F09F080E08170089581E0FCCFDC0107
:100B50006091650380916603962F891301C0089503
:100B6000292F30E0F901EE0FFF1FE35AFC4F4081BF
:100B700051814A175B07A1F487E08A9FA0018B9FF0
:100B8000500D11244B5D5C4F81E0FA018483961374
:100B9000E6CF2F5F3F4F23703327209365030895DF
:100BA0002F5F3F4F922F9370D8CF1092C2021092B6
:100BB000C102E5E2F3E08581811102C01482168250
:100BC000379683E0ED35F807B1F70895E9E6F3E0ED
:100BD000848195812AE030E0B9010E947F2F6093E3
:100BE0001501868180931401828580931301848589
:100BF0008093120186859785B9010E947F2F6093AB
:100C00001101808980931001828980930F0184896A
:100C100080930E0108958091690390916A039093E7
:100C200017018093160108950E94F9049C01909188
:100C3000300280913102982B21F030932D022093C5
:100C40002C029091320280913302982B21F0309344
:100C50002B0220932A02E0914204F0914304309742
:100C600049F082E080932E020480F581E02D8EE22F
:100C700092E00994089590913002803F59F4809158
:100C8000310287FF0DC01092310291110BC01092FA
:100C9000280208C0813F81F48091310218169CF32C
:100CA000992381F08091320290913302892B09F0CF
:100CB00064C0109227020895823F49F497FFF0CF55
:100CC00010923002809131028111ECCFE0CF833F4E
:100CD00019F41916ACF3E4CF20913202893F29F4BC
:100CE0001216F4F610923202DBCF8A3F19F427FF76
:100CF000D7CFF8CF209133028B3F29F427FFD0CFF5
:100D000010923302CDCF8C3F19F41216CCF3C8CF1A
:100D1000843F31F480912F028E7F80932F02C0CFC9
:100D2000853F21F480912F028D7FF7CF863F21F4FC
:100D300080912F028B7FF1CF873F21F480912F028A
:100D4000877FEBCF883F21F480912F028F7EE5CF04
:100D50008D3F31F4809129028E7F80932902A0CFAC
:100D60008E3F21F4809129028D7FF7CF8F3F09F0CC
:100D700097CF809129028B7FF0CF0895809129022F
:100D800080FF0CC060910F0170E0759567957595B7
:100D900067956115710549F1862F089581FF06C099
:100DA00060910F0170E075956795F3CF60910F0129
:100DB00082FD0BC0909127029923A1F060910E0152
:100DC00080910F01961738F0682F70E06038710538
:100DD00000F38FE70895899FC001112470E00E94FD
:100DE000932FF4CF61E070E0D7CF81E00895809138
:100DF0002902609171037091720380FF16C02091E7
:100E00001301269FC001279F900D1124BC017695E8
:100E10006795769567956038710508F043C0611550
:100E2000710509F441C0862F089581FF0BC0209100
:100E30001301269FC001279F900D1124BC017695B8
:100E40006795E9CF82FF09C0809113019B01829FC2
:100E5000B001839F700D1124DECF20912802222340
:100E6000D1F29091120180911301482F50E029177F
:100E700048F0CB01849FB001859F700D949F700D49
:100E80001124C9CF289F90011124269FA001279FDC
:100E9000500D369F500D1124692F70E0CA010E9439
:100EA0007F2FB9CF8FE7089581E00895803F31F417
:100EB0000E94F7068195809331020895813F19F4CD
:100EC0000E94F706F8CF823F31F40E94F706819521
:100ED000809330020895833F19F40E94F706F8CFFB
:100EE000893F29F40E94BE068093320208958A3F0A
:100EF00021F40E94BE068195F7CF8B3F31F40E940A
:100F0000BE0681958093330208958C3F19F40E94A8
:100F1000BE06F8CF843F31F480912F028160809328
:100F20002F020895853F21F480912F028260F7CF30
:100F3000863F21F480912F028460F1CF873F21F416
:100F400080912F028860EBCF883F21F480912F029F
:100F50008061E5CF8D3F31F48091290281608093DB
:100F6000290208958E3F21F4809129028260F7CFF3
:100F70008F3FB9F7809129028460F1CF80E0089516
:100F8000F894E82FE295EF70F0E031A1282F2F7050
:100F900081E090E001C0880F2A95EAF7982F90959C
:100FA000932391A392A1892B82A378940895909181
:100FB0004B0492FF06C0282F28712830F9F4877F50
:100FC000846093FF06C0282F28712831F1F4877EB2
:100FD000846120914C0420FF06C0382F38713830CE
:100FE000D9F4877F816021FF06C0282F287128311E
:100FF000D1F4877E816194FD877E0895282F247126
:101000002430F9F68B7F8860DCCF282F24712431BF
:1010100001F78B7E8861DDCF382F3171313019F7C0
:101020008E7F8860E0CF282F2171213121F78E7EBD
:101030008861E1CFCF93DF93EC0182389105A9F16C
:10104000D8F58133910509F496C048F589329105A8
:1010500009F48AC08A9709F495C0C11521E5D20721
:1010600008F0BCC0C11530E5D30708F014C1C83E74
:10107000D10508F09CC0C03ED10560F5C83AD10545
:1010800008F087C0C53AD10508F0FDC0C130D105D0
:1010900009F12097F9F0C430D105E0F440C0853360
:1010A000910509F45AC0C997C1F680914B04837029
:1010B00089F0C0EED0E00EC0833E910599F170F446
:1010C000803E910501F1823E910539F680914B04F5
:1010D00082FD21C0CE01DF91CF910895863E91051A
:1010E00061F1873E910571F1843E910509F0B5CF1C
:1010F00080914C0481FFEECF80914B04C7EED0E08D
:1011000084FD0DC0E7CF80914B0480FD12C190910A
:101110004C0490FFDFCFC3EED0E084FFDBCFD0E004
:10112000C0E0D8CF80914B0482FD06C190914C0461
:1011300090FDBFCF84FFCECFF2CF80914B0483FDD3
:10114000DDCFC8CF80914B0483FDF9C090914C0452
:1011500091FFF0CFC4EED0E0BDCF80914B0485FF6E
:10116000B9CFC9E2D0E0B6CF80914B0485FFB2CFB2
:10117000C5E3D0E0AFCF80914B0486FFABCFCAE28E
:10118000D0E0A8CF80914B0486FFA4CFC1E3D0E08C
:10119000A1CFCF3BD10518F6C85AD0E0CC0FDD1F48
:1011A000CA5DDE4F0990D881C02DD46493CFC1159C
:1011B00040E2D40758F4C11581E0D80708F08ACF7F
:1011C000C03FD10508F4ABCFD06584CFC11590E402
:1011D000D90708F4A4CFDF70D06A7CCFC11525E50C
:1011E000D20700F5C11534E5D30708F08AC0C11550
:1011F00043E5D40708F071C0C11582E5D80708F4AB
:1012000067C0CE018370992721E030E002C0220F31
:10121000331F8A95E2F7C695C69580E2C89FE00124
:10122000112452C0C11599E5D907A8F4C11528E5C4
:10123000D20708F06BC0C11536E5D30708F06FCFB1
:101240008C2F0E94D707C82FD0E0DC2FCC27CC27CB
:10125000DF71D0623FCFC1154AE5D40708F45BC007
:10126000CE0190568115904208F059CF8D2F8F7185
:101270000E94D70790E0982F882788279F719C01AC
:101280002C2BE901E6CFC55AD0E0CD5DDE4FC881F9
:10129000D0E0D0641FCFCE01E4E096958795EA9523
:1012A000E1F783702C2F26952695237040E2249F2A
:1012B00090011124382B8C2F8370C1E0D0E002C044
:1012C000CC0FDD1F8A95E2F7C22BD32BDC6802CF4F
:1012D000DC2FCC27C16FD06AFDCECE018370992759
:1012E00021E030E002C0220F331F8A95E2F7C69555
:1012F000C69590E2C99FE0011124C22BD32BDA6876
:10130000E9CEDC2FCC27C46FD06AE4CEDC2FCC270B
:10131000C06FD06ADFCE8C2F8F700E94D70734E069
:10132000D695C7953A95E1F7CF709C2FEC01D0691F
:10133000D1CEC9E3D0E0CECEC2EED0E0CBCEC6EE69
:10134000D0E0C8CE8091FC01882331F01092FC01DE
:101350001092FB011092FA010895CF93C82F80914B
:101360004C0482FD0CC08091FC018C1741F00E945E
:10137000F9049093FB018093FA01C093FC01CF9193
:101380000895809590918004982390938004089507
:10139000809590919C02982390939C02089590913F
:1013A0009C02892B80939C0208951092F801109260
:1013B000F7011092F601089580916B0390916C03F0
:1013C000892B89F00E94F9042091FA013091FB01E8
:1013D000AC01421B530B81E020916B0330916C03F5
:1013E0004217530708F480E08170089580919C02B1
:1013F00090918004892B9091F901892B809376013B
:101400008091FC01882319F180916B0390916C030A
:10141000892B29F00E94DC0981110E94A209809188
:1014200076019091FC01892B8093760180911A01BD
:10143000882341F180914B0487FF24C08EE1E8E7C7
:10144000F1E090E0815000F591110E94A209E09135
:101450004204F09143043097E1F080911A0188230F
:1014600059F080914B0487FF07C0809176018093EB
:10147000770186E0809376010280F381E02D86E794
:1014800091E0099486E0DBCF21912223D9F29F5F7E
:10149000D9CF0895EF92FF920F931F93CF93DF93CD
:1014A000EC018A85811134C0EB80FC8087E5F81A55
:1014B00026E12E9DC0012F9D900D1124DC01A05727
:1014C000BC4F1496ED91FC911597309731F05496DE
:1014D0006D917C918A569C4F099586E18E9D800185
:1014E0008F9D100D112400571C4FF80187810E9419
:1014F000C809F80180850E94C1090E94F609188276
:1015000019861B861E821D8210928F0310928E03F5
:10151000DF91CF911F910F91FF90EF900895CF939E
:10152000DF93EC018989811118C081E0898B8F815B
:101530000E94CF09809180049885892B8093800434
:101540000E94F609EA81FB81309739F06C897D8928
:10155000CE010696DF91CF910994DF91CF91089546
:1015600080911801877F8093180182E00E94C10951
:101570008091180184FF06C08F7E8093180182E05D
:101580000E94CF098091180185FF06C08F7D80934E
:10159000180180E20E94CF090C94F6098091F501B0
:1015A00081111092F50108952091F4019091B301F9
:1015B000291302C080E0089530E0F90153E0EE0FF6
:1015C000FF1F5A95E1F7EC54FE4F5181561306C0A8
:1015D0005081581303C05281541304C02F5F3F4FF2
:1015E0002770E6CF81E008958091F4019091B301D6
:1015F000981301C008958F5F8770FACF9E3F49F11D
:10160000E82F2CE0929FE00D11249E2F9770E69515
:10161000E695E69583E0E89FF0011124E756FE4F3A
:1016200050E040E080E0219130E0092E02C0369584
:1016300027950A94E2F721703327042E01C0220F68
:101640000A94EAF7822B4F5F5F4F4330510559F7F9
:10165000089580E008959E3F69F1E82F2CE0929F65
:10166000E00D11248E2F877041E001C0440F8A9550
:10167000EAF7E695E695E69583E0E89FF001112408
:10168000E756FE4F30E020E070E05191DF01119706
:10169000CB01022E02C0969587950A94E2F78170DD
:1016A00081958527842385278C932F5F3F4F233097
:1016B000310559F70895E92FE295EF70E250EE30C9
:1016C00070F4F0E0EA5CFF4C0C94A72F803F19F017
:1016D00020F4883E20F481E00895843FE1F380E027
:1016E0000895883EC0F3813FD1F7F5CF93FB88275B
:1016F00080F9089590E080E00E947A0590E080E013
:101700000E946405109280041092F9010E94F6096B
:1017100086E0EEE2F2E0DF011D928A95E9F7109291
:10172000280210922702109229020C94140680932A
:101730007F040C947A0B80917F04982F96709630DA
:1017400019F488600C94970B877FFCCF21E030E080
:1017500001C0220F8A95EAF7209580917F048223A9
:101760000C94970B9091F801809589238093F80150
:10177000282F277091F4282F082E000C330B921776
:10178000130659F090914C0492FD07C085958595FC
:1017900085950E94A60B0C94D509089521E030E0B0
:1017A00001C0220F8A95EAF780917F04822B0C9466
:1017B000970B90914C0492FD10C098E0899F900186
:1017C0001124622B6093F8010E94CE0B0E94F90451
:1017D0009093F7018093F60108950C94CE0B8093BB
:1017E000FD010C947A0B882321F00E94C1090C940E
:1017F000F6090895882339F090918004982B9093EE
:1018000080040C94F6090895882321F00E94C809E9
:101810000C94F6090895882321F00E94CF090C94B6
:10182000F6090895882379F19CEF980F913A38F4DE
:10183000682F86E791E00E9405050C94F60990E276
:10184000980F983050F4877091E001C0990F8A95F5
:10185000EAF7892F0E94C809F0CF9BE5980F9330D3
:1018600020F490E080E00C947A0598E5980F973189
:1018700020F490E080E00C946405803F20F00E940A
:101880003B060C9414060895CF93C82F882309F4BF
:101890006BC08CEF8C0F813AC0F580911A018823C0
:1018A00011F180914B0487FF1EC0EC2FE695E69561
:1018B000E695F0E0EA58FE4F828190E04C2F4770A9
:1018C00021E030E002C0220F331F4A95E2F7822365
:1018D0009323892B91F06C2F86E791E00E940505F8
:1018E0000E94F6090AC0E8E7F1E08EE791E0219155
:1018F000C21789F38E179F07D1F76C2F86E791E007
:101900000E942F05CF910C94F60980E28C0F88304D
:1019100048F4C77081E001C0880FCA95EAF70E94B9
:10192000CF09F0CFEBE5EC0FE33040F4F0E0ED5DF4
:10193000FE4F808190E0CF910C947A05E8E5EC0FA2
:10194000E73150F4F0E0EE0FFF1FEA5DFE4F8081BB
:101950009181CF910C946405C03F30F08C2F0E9490
:101960005607CF910C941406CF9108959C013A9597
:1019700021153F4150F5FC01EE27F170BC016627AF
:101980007270AC01442754709C012227387094FF78
:101990000EC080E1EF2B09F480E0672B09F0806234
:1019A000452B09F08064232B89F08068089581E03D
:1019B000EF2B09F480E0672B09F08260452B09F0DA
:1019C0008460232B19F08860089580E00895CF93F8
:1019D000DF93EC010E94120CCE010E94B60C9E0116
:1019E000205E31092830310510F0CD2B21F4DF9134
:1019F000CF910C94040CDF91CF910C94F30BCF9307
:101A0000DF93EC010E94B60C9E01205E3109283064
:101A1000310510F0209739F40E940B0C8C2FDF91C8
:101A2000CF910C94440C0E94FA0BF8CF662329F056
:101A3000209180042260209380049C01305621155F
:101A400040E2340720F0305E2115304108F4992738
:101A50000C94FF0C80934D0470934F0460934E04DC
:101A600080917E048430F9F48093E9008FEF9091A7
:101A7000E800815095FD06C095ED9A95F1F70000BC
:101A80008111F5CF8091E80085FF0DC050E040E066
:101A900063E070E08DE494E00E9473038091E800BD
:101AA0008E778093E8000895BC0184E00C942A0DA1
:101AB000BC0183E00C942A0D9C0184E08093E90032
:101AC0009FEF8091E800915085FD06C085ED8A95D5
:101AD000F1F700009111F5CF8091E80085FF0CC06F
:101AE00050E040E066E070E0C9010E94730380911D
:101AF000E8008E778093E8000895CF93DF93EC01A0
:101B000080911A018823B1F180914B0487FF32C084
:101B100060E284E08093E9008FEF9091E8008150CB
:101B200095FD06C095ED9A95F1F700008111F5CF6E
:101B30008091E80085FF1BC080911A0170E050E0A1
:101B400040E0811104C050E040E068E070E0CE0168
:101B50000E9473038091E8008E778093E80080E212
:101B6000FE01A3E5B4E001900D928A95E1F7DF91C3
:101B7000CF91089568E081E0CDCF019708F40895F2
:101B8000EFE9FFE03197F1F700C00000F6CFDF92F8
:101B9000EF92FF920F931F93CF93DF937C018B0102
:101BA000D42E8091180182FF8CC0C091BF02D091C9
:101BB000C002CE15DF0521F0E114F10409F081C067
:101BC000809118018B7F8093180181FD73C08091F3
:101BD000BD029091BE02A801481B590B81E02091E3
:101BE0001601309117014217530708F480E0817005
:101BF000F82E80911801F0FA81F980931801FE0106
:101C000083E0F695E7958A95E1F7EE71FF27E356B5
:101C1000FD4F20813181AE014F70552781E090E06A
:101C200002C0880F991F4A95E2F7FF2009F444C0CB
:101C3000822B932B9183808380919C0281FF08C02B
:101C40008091180180618093180182E00E94C80988
:101C500080919C0285FF08C080911801806280936A
:101C6000180180E20E94C8096F2DCE010E94160D56
:101C7000DD2031F08091840385FF02C086FF3BC0E8
:101C800080918703909188030E94BD0D8091BF02CF
:101C90009091C0029C013056211540E2340720F09B
:101CA000305E2115304108F499270E94E70C0E940C
:101CB000B00A1DC081E09BCF80959095822393232D
:101CC000B9CFC701992797013056211540E2340753
:101CD00028F0305E2115304108F0C7010E94E70C62
:101CE0008091BF029091C0028E159F0501F3109361
:101CF000BE020093BD02DF91CF911F910F91FF9023
:101D0000EF90DF9008951F93CF93DF93182FC0912A
:101D10008903D0918A03893321F0C0918703D09140
:101D20008803812F0E94440C209731F4812FDF918A
:101D3000CF911F910C94120C8FE99FE00197F1F75E
:101D400000C000002197F0CF0F931F93CF93DF9334
:101D5000C42FD22FFC0182818823A1F040938D03F0
:101D60000E94F90490938C0380938B03C77081E0E9
:101D700001C0880FCA95EAF7DF91CF911F910F91AB
:101D80000C940B0C10918D03141339C080918B03AC
:101D900090918C030E94EA04209181033091820388
:101DA0008217930760F5C0E2CD0F1D17B9F080E2EE
:101DB000810F883040F4177081E001C0880F1A95B8
:101DC000EAF70E94040CC83048F481E09D2F977018
:101DD00001C0880F9A95EAF70E940B0C802F0E9491
:101DE000830EC83098F4D77081E001C0880FDA956F
:101DF000EAF7DF91CF911F910F910C94040CC770FB
:101E000081E001C0880FCA95EAF7F3CFDF91CF9147
:101E10001F910F910895AF92BF92CF92DF92EF92F0
:101E2000FF920F931F93CF93DF93EC018AE0A82ECC
:101E30002881222309F48CC02130C9F599818A8137
:101E4000913021F422960E94830E05C0923029F42D
:101E500022960E94440C2196EBCF933021F42296D7
:101E60000E94120CF8CF943011F02196F4CF2296F4
:101E700030E020E0AE014F5F5F4F8053990B8A3016
:101E8000910550F02150310930F38FE99FE001971F
:101E9000F1F700C00000F6CFA29EB001A39E700D26
:101EA00011249C01260F371F8981EA01E3CFE22F1D
:101EB000F0E0E650FE4FB490822F86958695869589
:101EC00090E0FC01E651FE4FE4902770F12C022EC9
:101ED00002C0F594E7940A94E2F731E0E322FF248C
:101EE000FC01E652FE4FC490D12C022E02C0D594C4
:101EF000C7940A94E2F731E0C322DD24FC01E653E3
:101F0000FE4F049110E002C0159507952A95E2F75F
:101F100001701127E114F10419F081EE0E94440CC4
:101F2000C114D10419F086EE0E94440C8B2D0E943E
:101F3000830ECD2819F086EE0E94120CEF2819F0BE
:101F400081EE0E94120C012B09F485CF8CE27BCF2D
:101F5000DF91CF911F910F91FF90EF90DF90CF9085
:101F6000BF90AF9008950F931F93CF93DF9309E62F
:101F700013E0C7EAD1E0CE010E94EA2FF801819375
:101F80008F012196C93CF1E0DF07A9F7C8E6D4E04C
:101F9000FE0185919491009711F0FC010995289616
:101FA000F5E0C030DF07A1F7DF91CF911F910F91CE
:101FB00008950F931F93CF93DF93843030F56430EF
:101FC00020F54C3010F5C42FD0E0CC0FDD1F28E1F8
:101FD000629FC00DD11D112430E6839FC00DD11D1D
:101FE0001124CE0187960E94EA2F082F10E0102FAF
:101FF0000027CE0188960E94EA2F9801282BC9015C
:10200000DF91CF911F910F91089590E080E0F8CF7C
:10201000462F20919A0230919B02232B91F47E3F10
:1020200039F46E3F71F4809198029091990208956D
:10203000843038F4743028F46C3018F4672F0C9422
:10204000D90F90E080E00895CF92DF92FF920F9336
:102050001F93CF93DF936C0100917F048091FD016A
:10206000082BC7E0D0E010E0FC2EC8010C2E02C007
:10207000959587950A94E2F780FD0CC02197A0F70B
:10208000F12C8F2DDF91CF911F910F91FF90DF9059
:10209000CF900895B6018C2F0E9408100E941A0854
:1020A000019761F3EECFCF93DF93EC010E942410F0
:1020B000BE010E940810DF91CF910C941A08FC0118
:1020C00086819781009721F00E941A080C945B0B7F
:1020D000808191810E945310F9CF1F93CF93DF939A
:1020E00000D000D00F92CDB7DEB749835A838981E3
:1020F0009A816623B9F02223A9F00E942410182F98
:10210000682F89819A810E942B0B69817A81812FA6
:102110000F900F900F900F900F90DF91CF911F9124
:102120000C9408100E94FE0A182FEFCFFC01262FF6
:1021300086819781009739F4408151816281738152
:1021400084810C946D10089583E290E00E94EA2F40
:102150008C3789F484E290E00E94EA2F8E3D59F496
:1021600085E290E00E94EA2F91E08E3909F090E03C
:10217000892F8170089580E0FCCFCF9384E090E0B8
:102180000E94EA2FC82F82E290E00E94EA2F982F47
:102190008C2FCF9108950F931F93CF93DF9309E670
:1021A00013E0C7EAD1E0CE010E94EA2FF801619165
:1021B0008F01681719F0CE010E94F82F2196C93CB3
:1021C000F1E0DF0781F7DF91CF911F910F91089523
:1021D000E9E6F3E0128E138E8FEA90E0918380831C
:1021E00085E0848F88E893E1938382834CE251E019
:1021F0005583448322E330E03783268385E090E0F3
:10220000918780878AE090E09387828764E170E01D
:10221000758764875787468744E650E0518B408B2B
:1022200048E050E0538B428B48E250E0558B448BA2
:10223000378B268B28EC30E0318F208F158E978FCF
:10224000868F80E590E091A380A30E94CB100C9430
:10225000B30FCF93DF93C9E6D2E060E0CE010E94D6
:10226000F82F2196C11584E0D807B9F7DF91CF91F7
:1022700008950F931F93CF93DF938901843048F51E
:10228000643038F54C3028F521153C4531F4209167
:10229000960230919702232BE1F0C42FD0E0CC0FAF
:1022A000DD1F98E1699FC00DD11D112490E6899F23
:1022B000C00DD11D1124612FCE0187960E94F82FE9
:1022C000602FCE018896DF91CF911F910F910C94D2
:1022D000F82FDF91CF911F910F910895CF93C82FC1
:1022E0006FEF81116CE783E290E00E94F82F6FEFAF
:1022F000C1116EED84E290E00E94F82F6FEFC111E2
:102300006EE985E290E0CF910C94F82FCF93C091C5
:102310004C04C2FB992790F9981799F080FBC2F9F9
:10232000C0934C0460914B0484E090E00E94F82F2D
:102330006C2F82E290E00E94F82F82E0CF910C9403
:10234000B20BCF9108957F928F929F92AF92BF92DE
:10235000CF92DF92EF92FF920F931F93CF93DF9371
:10236000CDB7DEB764970FB6F894DEBF0FBECDBF12
:10237000A0909602B090970281E090E0909397022F
:102380008093960282EAC82E83E0D82E00E0760180
:1023900010E015C0F40125913491472D612F802F55
:1023A0000E94391182E0880E911C7394ECE07E1239
:1023B000F1CFF8E1EF0EF11C1F5F143019F0470167
:1023C000712CE8CF0F5F80E6C80ED11C0430F9F6FF
:1023D0000E94E8101A8219821C821B821E821D82B2
:1023E00018861F8288EC90E09A87898709EC11E0B3
:1023F0004AE050E0B801CE0101960E941C30065F11
:102400001F4F0931E2E01E0799F77E01FBE0EF0E56
:10241000F11C8AE0F70111928A95E9F74AE050E051
:10242000B801C7010E941C30065F1F4F0936F2E059
:102430001F07A1F7B0929702A092960264960FB67A
:10244000F894DEBF0FBECDBFDF91CF911F910F91EA
:10245000FF90EF90DF90CF90BF90AF909F908F90C4
:102460007F90089580E00E946E1160E086E290E027
:102470000E94F82F0E94A3110E94291181E00C9460
:102480006E119B01883070F49AE0899FB00111248D
:1024900067537E4F4AE050E0C9010E94DA2F90E076
:1024A00080E008958FEF9FEF08958F929F92AF92F3
:1024B000BF92CF92DF92EF92FF920F931F93CF9331
:1024C000DF93CDB7DEB72A970FB6F894DEBF0FBE05
:1024D000CDBF00E913E0F12CE12C81EEC82E86E29D
:1024E000D82E9BE0A92E97E2B92E2AE4822E26E26E
:1024F000922EF801D182C082B382A2829582848218
:10250000F58AE48ABE016F5F7F4F8E2D0E944112D3
:10251000892B29F489859A85F801938B828BFFEFAB
:10252000EF1AFF0A0A5E1F4F88E0E816F10409F768
:102530002A960FB6F894DEBF0FBECDBFDF91CF91C4
:102540001F910F91FF90EF90DF90CF90BF90AF90D1
:102550009F908F900895CF92DF92EF92FF920F930A
:102560001F93CF93DF93CDB7DEB72A970FB6F894BA
:10257000DEBF0FBECDBFE6E4F2E080E5DF011D92D5
:102580008A95E9F7E5E2F3E088E3DF011D928A9599
:10259000E9F786E4C82E82E0D82E7F0109E112E037
:1025A000F701D182C0824AE050E0B801CE01019625
:1025B0000E94DA2F88E0FE013196D60101900D923B
:1025C0008A95E1F789859A85D70113969C938E9316
:1025D0001297BAE0CB0ED11CE7E0EE0EF11C065FBD
:1025E0001F4F0936F2E01F07D9F62A960FB6F89466
:1025F000DEBF0FBECDBFDF91CF911F910F91FF9036
:10260000EF90DF90CF90089510929C0280911A0174
:10261000E8E7F1E0882359F080914B0487FF07C079
:102620008EE1DF011D928A95E9F70C947A0B86E022
:10263000F8CF1F93CF93DF93CDB7DEB7AA970FB62E
:10264000F894DEBF0FBECDBF86E794E02091F10085
:10265000DC012D93CD01B4E08E379B07B9F7809153
:102660007704833009F472C0B8F4813009F449C0AA
:10267000823009F4B3C08091E80083FF96C2809154
:102680007604909177049A3008F08FC2E92FF0E039
:10269000EC5BFF4C0C94A72F8A3009F48EC08B3072
:1026A00009F471C0893039F780917604813219F7C5
:1026B00080917A0490917B04009711F00297D9F6EB
:1026C0008091E800877F8093E8008091E80082FF96
:1026D00038C09091F3008091F200029731F480911C
:1026E000F100813011F0863021F48091F100809367
:1026F00052048091E8008B778093E8000E94C50324
:10270000BACF80917604813A09F0B5CF8091E80084
:10271000877F8093E80080917A0490917B04892BD5
:1027200061F460E283E594E070E00E9477048091B8
:10273000E8008B778093E8009ECF60E090E080E037
:10274000F3CF80917E048111C0CF95CF8091760424
:10275000813A09F090CF80917A0490917B04892B83
:1027600009F089CF8091E800877F8093E80080910D
:10277000E80080FFFCCF80911A018093F1008091E6
:10278000E8008E77B9CF80917604813209F073CF5B
:1027900080917A0490917B04892B09F06CCF809111
:1027A000E800877F8093E8000E94C5038091780449
:1027B00080931A010E9404135ECF809176048132C7
:1027C00009F059CF8091E800877F8093E8000E944C
:1027D000C50380917904809351044DCF8091760494
:1027E000813A09F048CF8091E800877F8093E80024
:1027F0008091E80080FFFCCF80915104BECF8038EB
:1028000099F0823809F0D1C180917A048F708730B5
:1028100008F0CBC18093E9008091EB0085FB88270D
:1028200080F91092E90006C08091730490917404BD
:10283000911182609091E800977F9093E8008093D7
:10284000F1001092F1008091E8008E77AAC18823F0
:1028500009F498C1823009F0A8C1809178048111EF
:102860009BC180917A048F702FEF280F263008F0DB
:102870009CC18093E9002091EB0020FF8DC1933033
:1028800031F48091EB0080628093EB0085C19091E0
:10289000EB0090619093EB0021E030E001C0220F4B
:1028A0008A95EAF72093EA001092EA008091EB0003
:1028B0008860EACF811179C1109178041F778091E7
:1028C000E3008078812B8093E3008091E800877F8C
:1028D0008093E8000E94C5038091E80080FFFCCF50
:1028E0008091E30080688093E30082E0111183E02F
:1028F00080937E045AC18058823008F056C12091DE
:102900007804309179042C3DE3E03E07A1F583E0A3
:102910008A838AE289834FB7F894DE01139620E018
:102920003EE051E2E32FF0E050935700E49120FFA6
:1029300003C0E295EF703F5FEF708E2F90E0EA30BA
:10294000C0F0C7968D939D932F5F243159F74FBFE9
:102950008091E800877F8093E8006AE270E0CE0112
:1029600001960E9477048091E8008B778093E800BD
:102970001CC1C096E7CF80917A0490917B04432FCD
:1029800055274330510509F44AC078F541305105C7
:1029900009F485C08BE590E0EAEFF4E042305105A0
:1029A00009F003C12091E800277F2093E8002091DF
:1029B0007C0430917D048217930708F49C0140E069
:1029C0002115310509F070C041116EC08091E800F9
:1029D00082FDC9CF80917E04882329F2853019F2C7
:1029E0008091E80083FFF2CFBECF4132510509F458
:1029F00047C04232510509F0D8C08330910508F034
:102A0000D4C0FC01EE0FFF1FE959FE4F0190F08189
:102A1000E02D8C599E4FDC018C9190E01DC0332736
:102A200021303105E9F02115310579F022303105E9
:102A3000F9F02330310509F0B8C0E7E6F5E0E4919C
:102A40008E2F90E0E7E6F5E007C0EFEAF5E0E491CD
:102A50008E2F90E0EFEAF5E0009709F4A6C0A2CF30
:102A6000E3E9F5E0E4918E2F90E0E3E9F5E0F4CFBF
:102A7000E5E8F5E0E4918E2F90E0E5E8F5E0ECCFB5
:102A80008330910508F091C0880F991FFC01E3592C
:102A9000FE4F0190F081E02D89E090E083CF82E14C
:102AA00090E0E5E5F5E07ECF80917E04882309F48F
:102AB0005ACF853009F457CF8091E80083FD53CF7A
:102AC0008091E80082FD82CF8091E80080FF78CF7E
:102AD0009091F3008091F2002115310519F08830B2
:102AE000910550F041E0089709F040E08091E8003E
:102AF0008E778093E80064CF44914093F100319643
:102B0000215031090196E8CF803809F04EC08091FC
:102B1000E800877F8093E800809175048093F1003E
:102B200092CE811142C0109178041230F0F580915C
:102B3000E800877F8093E800109375040E94C50326
:102B4000112311F084E005C08091E30087FDFACFE6
:102B500081E080937E0442E061EC81E00E94E40326
:102B600042E261EC84E00E94E40342E261EC82E034
:102B70000E94E40342E260EC83E00E94E40380915F
:102B80007E0413C080917804813079F481E0933021
:102B900009F080E0809374041092E9008091E800CD
:102BA000877F8093E8000E94C5038091E80083FF3F
:102BB0000AC08091E800877F8093E8008091EB0055
:102BC00080628093EB00AA960FB6F894DEBF0FBE2A
:102BD000CDBFDF91CF911F9108956AEE7EEF90E017
:102BE00080E00E94163060E082E090E00E94F82FC2
:102BF00060E083E090E00E94F82F1092FD0160E019
:102C000084E090E00E94F82F60E082E290E00E9471
:102C1000F82F60E085E090E00E94F82F60E086E009
:102C200090E00E94F82F6FEF87E090E00E94F82F6D
:102C300040E050E0BA0188E090E00E940A3060E095
:102C40008DE090E00E94F82F40E050E0BA0188E16A
:102C500090E00E940A3060E087E190E00E94F82F47
:102C600040E050E0BA018CE190E00E940A3070E050
:102C700060E080E290E00E94163040E050E0BA014F
:102C800088E190E00E940A3080E00E946E110E946C
:102C9000321240E050E0BA018FE090E00E940A302A
:102CA00040E050E0BA0183E190E00C940A308F924A
:102CB0009F92AF92BF92CF92DF92EF92FF920F93CB
:102CC0001F93CF93DF9300D000D0CDB7DEB77C0148
:102CD000DC0113964D915C91149711966C911197AC
:102CE0008C910E949C05811179C061E0C7010E940E
:102CF00096108C01F7018281811111C0D7011296C3
:102D00008C91811149C00031FFE51F0709F4EEC025
:102D100001312FE5120709F007C782E0E8C0809172
:102D2000000190910101019649F360E9C62E63E02C
:102D3000D62EB12CA12C99249394809100019091CE
:102D400001018A159B05D4F2F60186818823E9F0FA
:102D5000818592850817190739F480918E03909127
:102D60008F030817190789F0D6011F969C921F97A9
:102D70001C961C930E931B97C6010E948F0AC601D6
:102D800006960E944A0A10928004BFEFAB1ABB0A53
:102D9000E6E1CE0ED11CD1CF980122513F45203122
:102DA000310508F0B7C68FEF93E00E94EA2F5EEE80
:102DB000D52ED00E09E612E0882369F18091F80142
:102DC000877061F0D70112968C91882339F0809139
:102DD0004C0482FD03C082E00E94B20B0F900F9062
:102DE0000F900F90DF91CF911F910F91FF90EF9077
:102DF000DF90CF90BF90AF909F908F900895011576
:102E0000F4E01F07D9F2C8010E94EA2F811101C026
:102E1000DA940F5F1F4FD110F2CF19821A821B82F2
:102E20001C82CC24CA9448012FEF821A920AC8014E
:102E30000E94EA2F89831A82882309F4BFCF813048
:102E400009F048C0580132E0A30EB11CC4010E9431
:102E5000EA2F982E8A83882309F4B0CFC5010E94F7
:102E6000EA2FD82E8FEF890D833068F4580143E0A4
:102E7000A40EB11CDB82DD2021F0CE0101960E9460
:102E80000B0F8501D0CF54E09512FBCF580184E0A1
:102E9000A80EB11CC80103960E94EA2FDD2009F498
:102EA0008DCF882309F48ACF8150990BC89E900159
:102EB000C99E300D1124AD2DA150BB0BCD01820F49
:102EC000931F0197F0F2EFE9FFE03197F1F700C0AF
:102ED0000000F7CFCE0101960E940B0F5401D1CF15
:102EE00081E00E94CE0B0E949B0B68CF81E00E9484
:102EF000A60BF9CF82E0F5CF4FEFC416D10411F045
:102F000008F01EC66CE372E08C2D0E944112892BE2
:102F100029F586E18C9DF0018D9DF00D1124E0577F
:102F2000FC4F8681813009F062C080913C02909113
:102F30003D02892B99F080913E0290913F02892BAE
:102F400069F08091400290914102209142023091BB
:102F50004302822B932B892B09F453C080910001EB
:102F6000909101018C159D0524F4D0920101C0922D
:102F70000001F701828196E19C9D50019D9DB00C5E
:102F80001124950120573C4F6901D90150968C932B
:102F90005097928116968C911697992309F43FC009
:102FA0001A961C930E9319978F5F16968C930E9416
:102FB000F904F601968785878091FC0187838091CB
:102FC000800490919C02892B80870190F081E02DF4
:102FD000309741F0D60154966D917C91C5018A5687
:102FE0009C4F099510938F0300938E03A9C58230DF
:102FF00009F0B4CF8091400290914102892B09F4ED
:10300000ADCF26E12C9DC0012D9D900D1124805740
:103010009C4FDC0150961C920E948F0A9FCF882300
:1030200009F48EC5F9018189882309F489C5C50190
:103030008A569C4F0E944A0A83C58091180181607C
:1030400080931801ABC5809118018E7F8093180181
:103050000E94B00AA3C5809118018F7E013E110520
:1030600031F0053E1105C9F4809118018F7D8093E0
:1030700018018091180180FFA0C5D70112968C918C
:103080000832110528F50E31110508F074C004301E
:10309000110580F581118DC590C5C8019056811527
:1030A00040E2940720F0905E8115904110F78091E6
:1030B000180182FF82C58091860381FD7EC521E0D3
:1030C00032E040E0B60190E080E00E94C70D75C597
:1030D0000933110558F40D32110518F40B3211059E
:1030E000C9F69091840392FDD5CF08C0043611052E
:1030F000C1F3D0CF9091840394FDCCCF882309F401
:10310000A1C090919C028091FC01282F292B322F85
:103110003D7FB1F11092C0021092BF023091840342
:1031200031FD2EC0F80143E0F695E7954A95E1F7A9
:10313000EE71FF27E356FD4F98012F70332781E092
:1031400090E002C0880F991F2A95E2F7809590952C
:1031500020813181822393239183808360E0C801A1
:103160000E94160D8091FC018D7F0E94AD0982E0C6
:103170000E94B20B23CE9091840393FD8BCFBECFE0
:1031800038E0F701A1E0B2E001900D923A95E1F745
:10319000109203021092050210920402A090BF0246
:1031A000B090C0020A151B05B1F53091840335FFBC
:1031B00032C04091180141FB992490F841FF02C0B0
:1031C00036FF29C04091BD025091BE02B601641B7A
:1031D000750B409181035091820364177507D8F4F1
:1031E00091FF08C08091180180618093180182E0EE
:1031F0000E94C80980919C0285FF08C08091180137
:1032000080628093180180E20E94C809692DC5017F
:103210000E94160DD3CD9091180121FB91F9909346
:1032200018018D7F0E94AD091093C0020093BF0268
:10323000D092BE02C092BD0280911801846080933A
:10324000180195CF970140E0B601C8010E94C70D53
:10325000B5CD053F4CE5140709F467C008F45FC01D
:10326000063F8CE5180709F466C0D70112963C9119
:10327000332309F4C1C410928D030330BDE51B074D
:1032800008F065C00A3FECE51E0730F4C801825023
:103290009C45449708F060C00E94BD1090934C0478
:1032A00080934B0400312CE5120709F461C108F04A
:1032B000DDC008304CE5140709F448C108F0AFC080
:1032C00004308CE5180709F433C108F095C00230CA
:1032D000ACE51A0709F426C180914B0482600330E3
:1032E0001C4509F422C160914B0410914C0484E008
:1032F00090E00E94F82F612F82E290E00E94F82F68
:103300000E9404135BCD07E225EE45EE68ED7CE5F7
:103310006FC406E221EE40EE63EF7CE569C407E28C
:1033200025EE44EE64EF7CE563C406E221EE42EE56
:1033300065EF7CE55DC407E225EE46EE66EF7CE5D1
:1033400057C408E221E045EE69ED7CE551C4013641
:10335000FDE51F0709F4A0CF06315CE5150709F468
:103360004FC40A354DE5140709F453C108F02FC1C5
:1033700001158CE5180709F43CC10E3D1C4509F404
:1033800045C1F70186819781009709F446C10E94E3
:103390001A08182F092FF701D280C580C2943FE088
:1033A000C3228091F8018770C1F0AD2CDD20B1F00F
:1033B000892F807F803421F080E2810F883068F08F
:1033C00080914C0482FD09C082E00E94B20B809182
:1033D000F8018770AA24A3948111A12C902E9294B5
:1033E0002FE09222FBE0F91508F4A4C1E92DF0E0EA
:1033F000E25BFF4C0C94A72F80914B048061063058
:10340000ECE51E0709F491C080914B0488600730F9
:103410001C4508F48AC080914B04806286C080916C
:103420004B048D7F0C302CE5120709F47EC070F43C
:1034300080914B048C600A304CE5140709F475C088
:1034400008F488C080914B048E7F6FC00E308CE5ED
:10345000180709F485C080914B048B7F0F301C4501
:1034600008F463C080914B048F7E5FC00C3FACE5D5
:103470001A0709F479C068F50431ECE51E0709F470
:103480008BC080F402312CE5120709F475C08091DD
:103490004B048F7B03311C4508F447C080914B04DB
:1034A000837F43C00A3F4CE5140709F445C008F088
:1034B00049C005311C4509F016CF80914B0482FBB1
:1034C000992790F921E0922790FB82F990FB83F9EC
:1034D0002CC001159DE5190709F454C088F48091AA
:1034E0004C0483600E3FBCE51B0749F180914C04FE
:1034F0008D7F0F3F1C4518F180914C048C7F1FC0BD
:103500000230FDE51F0709F456C008F44EC001362D
:103510001D4509F0E8CE90914B04892F8F7E94FFD2
:10352000806103C080914B04816080934B04DBCEAB
:1035300080914B048460F9CF80914C04816080932A
:103540004C04D1CE80914C048260F9CF80914B0421
:103550008064EBCF0E94041380914B048068E5CF18
:1035600080914B04877FE1CF80914C048E7FE7CF21
:1035700080914B048F7DD9CF0E94041380914B041E
:103580008F77D3CF80914C04982F909591708E7F38
:10359000892B90FB81F9D3CF0E94041390914B04A7
:1035A000892F97FB87F98058C0CF61E08EE090E0CB
:1035B0000E94F82F98CE60E0F9CF8091960169E2E1
:1035C000811165E386E791E00E94050546C30B354E
:1035D000ADE51A0701F10C351D4509F0D2CE8091F9
:1035E0004C0482FB882780F991E089270E9486118C
:1035F000C8CE0E940413EFEFF4E32CE0E150F0405A
:103600002040E1F700C000000E94D9040E94ED159F
:10361000D5CB81E0EBCF80E0E9CF828100811181C1
:10362000882369F0C8010E942410D82E682FC80191
:103630000E942B0BB8018D2D0E940810A8CEC80146
:103640000E94FE0AD82EF6CF202F2F70B22E802F88
:10365000807F19F0B29490EFB922DD20A9F0BB2051
:1036600059F080E2810F883010F0111107C08B2DC6
:103670000E94CF090E94F609812F5AC080918004D0
:10368000B82AB0928004F6CF812F0E94120CBB2082
:1036900009F450C080E2810F883010F0111104C08D
:1036A0008B2D0E94C80903C08B2D0E94C1090E9466
:1036B000F60940C0302F3F70B32E802F807F8032BC
:1036C00019F0B29480EFB822112321F1113009F4DE
:1036D000A4C0DD2009F4ADC0CC2009F47DC020E0F9
:1036E000D7014C9111965C91119712966C9112979B
:1036F00013967C91139714968C910E946D10809173
:10370000860381FDB9CFF701858180FFB5CF8F702A
:10371000858362C080914C0482FF40C0DD20C1F1EE
:10372000BB2029F08B2D0E94CF090E94F60980E072
:103730000E94440CA92DA850BB0B149710F40E94B2
:103740009005812F902F0E945B0B8111C4C11092B4
:10375000980110929701AA20B1F08091F80180FDA4
:1037600012C0D70112961C928595859585950E9469
:10377000CE0BC7010E9457168091F801859585955B
:1037800085950E94A60B60E0C7010E94961026CB8B
:1037900080E00E94120CBB2069F282CFDD2001F193
:1037A000C11004C08091FC018B2917C041E0C412F4
:1037B00006C08091FC018B290E94AD09BBCF80918E
:1037C0008503823078F3C812EDCF0E94A209809160
:1037D000F501B812B092F5018B2D0E940B0CAACF07
:1037E000C11006C00E94A2098B2D0E94040CA2CF1A
:1037F0008091850351E0C5120BC0823008F49ACF46
:1038000080919C028B2109F495CF0E94CE0AEACFC9
:10381000823040F3C812E6CF8DCFDD2029F085E05D
:103820008C1508F487CFD8CF94E09C1508F482CF8C
:10383000DBCFCC20C9F28091890390918A031933A0
:1038400021F080918703909188030E94BD0D812F04
:103850000E94120C6FCF802F86958695837069F039
:10386000813009F067CF812F902F9370D11002C063
:1038700090E080E00E9464055DCF812F902F9370CF
:10388000D11002C090E080E00E947A0553CF812FD2
:10389000DD2029F00E9456070E9414064BCF0E949B
:1038A0003B06FACF802F837091F5D11043CF412F83
:1038B000429546954770440F440F812F8F70042E18
:1038C00001C0880F0A94EAF7212F207114FF07C066
:1038D0002FE030E001C0220F4A95EAF72095302F03
:1038E000369536953370323069F050F44091FD01D1
:1038F000313029F0822B84230E94EF0B1BCF842BC5
:10390000822BFACF282B8091FD018227F5CF869557
:10391000DD2011F0802F8170882309F40BCF412F17
:10392000429546954770440F440F812F8F70042EA7
:1039300001C0880F0A94EAF7212F207114FF07C0F5
:103940002FE030E001C0220F4A95EAF72095302F92
:10395000369536953370323069F050F440917F04DB
:10396000313029F0822B84230E94970BE3CE842BE5
:10397000822BFACF282B80917F048227F5CFF02F5E
:10398000FF70BF2EDD2029F08F2F0E94CE0B812FDC
:1039900024CF812F0E94040C8B2D0E94A60BCACE2F
:1039A000123F89F160F4103FB9F0113F81F0DD2042
:1039B00009F48CC0C11060CE802F8F7128C0133FD6
:1039C00049F1143FA1F780914C0482FF2FC0802F52
:1039D0008F71DD2011F31BC0DD2081F024E02C1558
:1039E00008F4A8CE202F2F7181E090E001C0880F4D
:1039F0002A95EAF790917F048927B6CF35E03C15E8
:103A000008F498CEEFCF802F8F71D110C6CF0E94CF
:103A1000CE0B90CE80E0DD2009F4A6CF81E0902F80
:103A20009F7101C0880F9A95EAF79ECF8091850318
:103A30008230A0F18091F501DD20F1F00E94C809EB
:103A40008091F8018770843041F40E94D509802F5D
:103A50008F710E94A60BA12C6DCE80918503C81694
:103A6000D0F7402F4F71B42E842F0E94CE0B63E00D
:103A70008B2D0E94D90BEFCF0E94CF098091850337
:103A8000C81640F00E94D5090E94CE0A64E0802F3B
:103A90008F71EFCF81E00E94B20BDDCFDD2059F0B6
:103AA000502F5F71B52E852F0E94CE0B63E08B2DBA
:103AB0000E94D90B3FCE81E00E94B20B81E08C15B1
:103AC00008F038CE82E00E94B20B34CEC110B3CEE3
:103AD000802F8F7162CFDD2019F0C11038CE3BCE20
:103AE000C11035CE20E0F7014081518162817381A0
:103AF00084810E946D108091860383FF28CE80917F
:103B0000970190919801029709F021CE812F0E9490
:103B1000830E1DCE0031BFE51B0709F4E1C9013159
:103B2000EFE51E0709F4E6C9680127E5D21A8823E4
:103B300009F4E2C93FEFC316D10409F008F40ECA34
:103B40008091840380FF39C00E94F9046C01D70181
:103B500012968C91882309F47ECA8091180182FF05
:103B600008C021E032E040E0B60190E080E00E9431
:103B7000C70D0B31BCE51B0709F45FCA0C31ECE53E
:103B80001E0709F460CA90911801892F8E7F90FF5B
:103B900081600A31FCE51F0709F458CAC801905634
:103BA000811520E2920728F0905E8115904108F07F
:103BB00060CA1092C0021092BF02033FBCE51B070F
:103BC00009F4A7CB08F045CB083DFCE51F0709F435
:103BD0009ACB093D2CE5120709F4B3CB073D3CE530
:103BE000130709F042CB06E221EE41EE67ED7CE5DA
:103BF000C7010E94A40EE2C806311C4509F0C1CBE2
:103C000080919C02982F9A7A2091830320FF04C010
:103C1000482F447409F090E021FF04C0482F4171FF
:103C200009F090E022FF04C0482F487809F090E0A6
:103C300023FF03C0827209F090E0332309F4BDCC66
:103C400081E0911101C080E08093960169E29111B9
:103C500065E386E791E00E942F050E94F609AEC851
:103C6000CF92DF92EF92FF920F931F93CF93DF9348
:103C70008091B001807F31F48091AD01C091F40159
:103C800081110BC0DF91CF911F910F91FF90EF90A9
:103C9000DF90CF9008952196C7708091B3018C1763
:103CA00089F3F090AB01E090AC01C090AE01D090F0
:103CB000AF01A6016E2D8F2D0E949C05D0E08111D1
:103CC000EACF8E0183E0000F111F8A95E1F7F8011A
:103CD000EC54FE4F81818E11DECF80818F11DBCFBE
:103CE00082818111D8CFE380F480EC18FD0860E078
:103CF0008BEA91E00E94961080918103909182035B
:103D0000E816F90640F68091B0018F7080618093CB
:103D1000B001F801E754FE4F80818F70806180838D
:103D20008BEA91E00E945716DF91CF911F910F917E
:103D3000FF90EF90DF90CF900C94F40A3F924F9257
:103D40005F926F927F928F929F92AF92BF92CF922B
:103D5000DF92EF92FF920F931F93CF93DF93CDB734
:103D6000DEB765970FB6F894DEBF0FBECDBF8C01EE
:103D700085E0F801DE01519601900D928A95E1F7F8
:103D8000D8014C9011965C9011971296EC90129776
:103D90001396CD90DC9060E08BEA91E00E94961043
:103DA0008BEAA82E81E0B82E8090AE019090AF01F2
:103DB000A4016091AC018091AB010E949C0581112E
:103DC000CAC1F090AD01F601E819F9094F0160E0B0
:103DD000FF2009F46DC1C5010E9496106090810317
:103DE000709082033090B0018614970408F013C1DC
:103DF0004091AE015091AF01B090AB01A090AC01E9
:103E0000832D807F6A2D09F0ADC08B2D0E949C050B
:103E1000FE2C81113BC0D80111968C9111978A110B
:103E200035C08C918B1132C02091B1013091B2011B
:103E300016968D919C912817390741F5E11026C0FF
:103E4000832D8F7080618093B0018BEA91E00E9496
:103E500057168091B001F80185838F2D65960FB6B6
:103E6000F894DEBF0FBECDBFDF91CF911F910F91B0
:103E7000FF90EF90DF90CF90BF90AF909F908F908A
:103E80007F906F905F904F903F900895F4EF6F1682
:103E9000F1E07F0620F48091860380FF21C0A60117
:103EA000652D842D0E949C05811118C081E08E250E
:103EB00080FF16C04E2D652D842D0E94D40A8823C4
:103EC00079F08BEA91E00E94571688E0EBEAF1E086
:103ED000DF011D928A95E9F7F12CBFCF80E0E8CF92
:103EE000A601652D842D0E949C05811124C081E0CE
:103EF0008E25B82FB170CB2E80FF2BC04E2D652D97
:103F0000842D0E94D40AD82E811123C0498A5A8A4E
:103F100089899A890E945310292F22952F70223067
:103F200060F0243088F49F7061F0F8019581907FF3
:103F300041F4FD2C92CF80E0DCCF9F7011F08823FC
:103F4000C1F3805E8830A8F3C8010E945716DC2CAC
:103F5000F0CFEE2009F481CF8091B0018160809391
:103F6000B001BACF8B2D0E949C05811124C0D801CD
:103F700011968C9111978A111EC08C918B111BC0C8
:103F80002091B1013091B20116968D919C911797B5
:103F90002817390781F4E1100EC015963C92C8012C
:103FA0000E94571688E0F801ABEAB1E001900D924B
:103FB0008A95E1F752CFC8010E945F10882339F13A
:103FC000EE2029F18091B0018032A0F02091AB0168
:103FD0003091AC013A8729871B86DD86CC868E8797
:103FE0008091B1019091B201988B8F87CE01099693
:103FF0000E94571688E0F801ABEAB1E001900D92FB
:104000008A95E1F70E94301EFF24F39426CFC80161
:104010000E945716F9CF832D807F09F452CF9090DC
:10402000AB018090AC014091AE015091AF01682D81
:10403000892D0E949C0581111CC0F8018181881185
:1040400018C08081891115C02091B1013091B20151
:10405000868197812817390761F4E1100AC03582FB
:10406000C8010E94571688E0D5011D928A95E9F78C
:10407000F4CEC8010E945F10882349F2EE2039F285
:104080008091B001803208F4B5CF2091AB0130911E
:10409000AC013A8329831B82DD82CC828E8380919E
:1040A000B1019091B20198878F83CE010196A0CF84
:1040B0008BEA91E00E949610809181039091820397
:1040C0008816990680F6FE2CEE2009F4A0CFE09029
:1040D000AB01D090AC014091AE015091AF016D2D7C
:1040E0008E2D0E949C05811128C0F80181818D11BF
:1040F00024C080818E1121C02091B1013091B20184
:104100008681978128173907C1F48091860382FD43
:1041100049CF9091B00190FD45CF907F09F442CFF7
:104120008091B0018583903F09F439CF982F907F1B
:10413000905F8F70892B858332CFC8010E945F10FA
:10414000811158CF8091B00181608093B001C80186
:104150000E94571682CEEE2009F459CFC8010E9462
:104160005F10F82E882309F452CF88E0F801ABEAFB
:10417000B1E001900D928A95E1F78091AB019091A9
:10418000AC010E9453100E94301E67CECF93DF9384
:10419000CDB7DEB760970FB6F894DEBF0FBECDBFC8
:1041A00029873A874B875C876D877E878F87988BB7
:1041B000CE0109960E949E1E81112FC088E0FE014B
:1041C0003996DE01119601900D928A95E1F74C85A2
:1041D0005D856A8589850E949C0581111EC0A0911C
:1041E000B301B0E0CD010196877099272091F401C9
:1041F0002817190609F193E0AA0FBB1F9A95E1F75A
:10420000AC54BE4F98E0FE01319601900D929A9504
:10421000E1F78093B3010E94F40A8091F401909138
:10422000B301891317C060960FB6F894DEBF0FBEB6
:10423000CDBFDF91CF9108950E9404131092B30176
:104240001092F40188E0EBEAF1E0DF011D928A951B
:10425000E9F7E3CFB8E08B9FC00111248C549E4F47
:104260000E949E1E8823F9F28091F40190E001964D
:10427000877099278093F401D0CFEF92FF920F932C
:104280001F93CF93DF938091C402882361F0C09184
:10429000C3028CE0F82E8091C402C81758F0109227
:1042A000C4021092C302DF91CF911F910F91FF9032
:1042B000EF900895EE24E394EC0EE092C3020C2FED
:1042C00010E0CF9DE0011124CB53DD4F4B815C8189
:1042D000698188810E949C0581111BC08E819F810C
:1042E000892B21F488859985019651F4288139819B
:1042F0004A815B816C817D818E819F810E94C62075
:10430000F09EF001F19EF00D1124EB53FD4F14824D
:104310001382CE2DC0CF10926803109267031092C3
:10432000190180916603809365030E94D5050C9462
:104330003D213F924F925F926F927F928F929F9218
:10434000AF92BF92CF92DF92EF92FF920F931F93A3
:10435000CF93DF93C091650397E0892E01E010E0D1
:104360002CE0322E3EEF932E44244394809166033A
:104370008C1315C00E943D21DF91CF911F910F91A9
:10438000FF90EF90DF90CF90BF90AF909F908F9075
:104390007F906F905F904F903F900C94D505D0E048
:1043A000FE01EE0FFF1FE35AFC4F80819181889E32
:1043B000D001899EB00D1124AB5DBC4F14962C9199
:1043C0001497211157C05090C402E5ECF2E030E0A0
:1043D00020E0712C5D01251508F04AC0E284F384C9
:1043E000D501CD90DC906FEF7FEF612C462D50E032
:1043F000DA01AA0FBB1FAC0DBD1D0D90BC91A02D05
:10440000109731F0EA16FB0609F4BA016394EECF77
:104410006F3F7607A1F1D80102C0AA0FBB1F6A95B2
:10442000E2F77A2AB80102C0660F771F6A94E2F7B2
:10443000AB014150510974161506F9F4329EF00192
:10444000339EF00D1124EB53FD4F889ED001899EC1
:10445000B00D1124AB5DBC4F12962D913C9113977A
:1044600037832683908291829187808715964C921C
:104470000E94A7052196C37079CF148213822F5F03
:104480003F4F3C96A8CF4F925F926F927F928F9250
:104490009F92AF92BF92CF92DF92EF92FF920F93D3
:1044A0001F93CF93DF93CDB7DEB728970FB6F8945D
:1044B000DEBF0FBECDBF8E010F5F1F4F88E0F8013A
:1044C00011928A95E9F794E5E92E91E0F92E6801B9
:1044D00028E5422E21E0522E66246394712C44E696
:1044E000842E41E0942EF70181917F018F3F09F4E2
:1044F00045C0F894E82FE295EF70F0E021A18F70AD
:10450000A30102C0440F551F8A95E2F7CA01922FFA
:10451000982B91A392A18095892382A3789400C0BF
:10452000E8E5F1E021E030E0B12CA12C41914F3FD2
:1045300009F476C0A42FA295AF70B0E090968C914C
:1045400090E04F7002C0959587954A95E2F780FDFF
:1045500067C0C901A82AB92A220F331F8E169F06E9
:1045600029F7F701319780818F3F11F00E94C00732
:1045700050EA5A95F1F7F601B182A082F2E0CF0E2F
:10458000D11C4E145F0409F0AECF48E050E0B801F2
:1045900089E092E00E94BD2FDD24D394009709F4B6
:1045A000D12C892B09F43FC088E0F801A9E0B2E0E2
:1045B00001900D928A95E1F781E0809300020E94BC
:1045C000F9049093FF018093FE018091FE01909188
:1045D000FF010E94EA04059750F180910902909131
:1045E0000A029093200280931F0280910B02909107
:1045F0000C02909322028093210280910D029091EF
:104600000E02909324028093230280910F029091D6
:10461000100290932602809325021092000207C098
:1046200090E080E097CF809100028111CECF809101
:1046300000019091010110E006E1019609F06DC0C2
:1046400080911901811173C08091840380FF1EC085
:104650008091180182FF1AC00E94F9042091BD02C6
:104660003091BE02AC01421B530B209116013091D8
:1046700017014217530750F021E032E041E0BC013E
:104680008091BF029091C0020E94C70D8D2D289687
:104690000FB6F894DEBF0FBECDBFDF91CF911F9153
:1046A0000F91FF90EF90DF90CF90BF90AF909F90D1
:1046B0008F907F906F905F904F900895089FF001CA
:1046C000099FF00D1124E057FC4FE288F388E114B4
:1046D000F10421F4E0908103F0908203089FF0013F
:1046E000099FF00D1124E057FC4F86818823A1F02B
:1046F000858596850E94EA04E816F90668F4109FFD
:1047000070011124C70180579C4F0E948F0AC70176
:104710008A569C4F0E944A0A1F5F812F90E0209189
:104720000001309101012817390744F689CF8091A3
:10473000670390916803009709F486CF0E94EA040A
:104740002091C1023091C2022817390708F07CCFAE
:104750009091650380916603981759F00E94992102
:104760001092C2021092C102109268031092670365
:104770006BCF0E943D2110926803109267030E9444
:10478000D50562CF2F923F924F925F926F927F92A8
:104790008F929F92AF92BF92CF92DF92EF92FF9251
:1047A0000F931F93CF93DF93CDB7DEB769970FB603
:1047B000F894DEBF0FBECDBF942F498B252F5A8BA7
:1047C0006B8B7C8B8D8B4C895D89622F892F0E942E
:1047D0009C05811109C080919701909198010196E3
:1047E00090939801809397018B8981111092800496
:1047F0001D861E861F86188A85E0FE017196DE01E1
:10480000199601900D928A95E1F780914C0482FDF2
:104810001EC080916B0390916C03892BC1F00E94A4
:10482000F9042091F6013091F701821B930B20913E
:104830006B0330916C038217930720F08091F8018D
:1048400082FFF5C10E94DC0981110E94A2094C85FA
:104850005D856A8589850E949C05811111C061E092
:10486000CE0109960E9496106C018B8527EFC21627
:104870002CE5D20681F4882321F181E0809319018F
:1048800029853A854B855C856D857E858F859889E0
:104890000E94C620C5C038EFC3163CE5D30629F4F4
:1048A000882379F00E948B21EBCF49EFC4164CE5A9
:1048B000D40639F4882329F0809119018111F2CFAF
:1048C000DCCF05E213E0512CB12CA12C222423943F
:1048D000312C2EEF422EF8014081518188248A9498
:1048E000982C20E0822F90E0FC01EE0FFF1FE40FD8
:1048F000F51F608171816115710531F0C616D7060B
:1049000009F44C012F5FEECFF12CFFEF8F169F06BD
:1049100009F448C0F8014481F09019018F2D41112C
:1049200080E0F82FF170FF2EF801E58086819B85ED
:10493000992309F40CC1FF2009F409C160907F0399
:1049400070908003E11012C0A10101C0440F8A944D
:10495000EAF7842B86838091C1029091C20286156A
:10496000970520F47092C2026092C102C10102C098
:10497000880F991F2A95E2F70197F80126812817D9
:10498000190681F48091670390916803009709F4F8
:1049900060C00E94EA046816790608F05AC021E057
:1049A000F80124835F28FFEFAF1ABF0A095F1F4F8A
:1049B00028E0A216B10409F08ECF8B85882309F474
:1049C00021C1552009F41EC10E94F9049093680387
:1049D000809367038091C402883010F591E0980FAE
:1049E0009093C40298E0FE013996DE011196019081
:1049F0000D929A95E1F73CE0839FC00111248B53FF
:104A00009D4F28E0FE013196DC0101900D922A9520
:104A1000E1F72FEF3FEFFC0131872087D386C28675
:104A200069960FB6F894DEBF0FBECDBFDF91CF9170
:104A30001F910F91FF90EF90DF90CF90BF90AF90BC
:104A40009F908F907F906F905F904F903F902F90AE
:104A500008958091650350916603982FF0E0E0E09F
:104A6000851314C090936503E017F10709F49ACFFA
:104A700090E0FC01EE0FFF1FE35AFC4FB182A082D1
:104A8000019683709927809366038CCF682E712CD2
:104A9000F301EE0FFF1FE35AFC4F2081318147E005
:104AA000429FD001439FB00D1124AB5DBC4F6D916F
:104AB0007C911197798F688F40E020E030E0E32F00
:104AC000F0E0EE0FFF1F688D798DE60FF71F8080F5
:104AD000918081149104E1F0F8010190F081E02DC2
:104AE000FF8BEE8B20E005C08616970609F44F2D4C
:104AF0002F5FE22FF0E0EE0FFF1F6E897F89E60F38
:104B0000F71F608171816115710571F73F5FD7CF24
:104B10004423D1F0F801231708F0FD0121E024839C
:104B20000E171F0721F490936503F42E3BCF9813C3
:104B300005C0AE17BF0711F49F5F937093012F5FFD
:104B40003F4F822F83708CCFF0E0E0E0F7CF90E012
:104B5000E1101FC0B10102C0660F771F2A95E2F76E
:104B60009B01215031098217930731F4442309F442
:104B700047C0C5010E94A705C10101C0880F8A94E2
:104B8000EAF7982F9095F801868189238683FE2C79
:104B900009CF9C01082C02C0359527950A94E2F7AD
:104BA000A90141705527BC016150710986239723E3
:104BB000892B11F5452B01F1F80182819381892B15
:104BC000C1F01B821C821D821E8249824A820E9481
:104BD000F9048160582F9D838C83F8018281938131
:104BE0008F83988729813A814B816D817E810E94D4
:104BF000C620F8011582C0CFF22FF170EF2EBCCF86
:104C0000EF2CBACF9091650380916603981731F02D
:104C10000E949921552009F433CE02CF0E943D21F4
:104C200010926803109267030E94D505F3CF82E0CB
:104C30000E94B20B07CECF93DF9300D000D00F922B
:104C4000CDB7DEB79093990280939802811520E248
:104C5000920748F40F900F900F900F900F90DF91F4
:104C6000CF910C94E70C8EEF89838A831B820E947C
:104C7000F9048160782F9D838C8349815A816B81EF
:104C80008D810F900F900F900F900F90DF91CF912B
:104C90000C94C2230F931F93CF93DF938C01EB01EE
:104CA0006CE372E08C2F0E944112892BA1F4809159
:104CB0008703909188030E94BD0DDD27CC5CDD4FFA
:104CC0008881F80110821882833009F148F481301C
:104CD00059F0823081F0DF91CF911F910F910895AB
:104CE0008430D1F08530B9F780913C0290913D023B
:104CF000009789F306C080913E0290913F02009791
:104D000099F3DF91CF911F910F910C941B26809105
:104D1000400290914102F3CF809142029091430270
:104D2000009779F720913C0230913D0280913E023C
:104D300090913F0221153105D9F2009711F7C90171
:104D4000E0CFCF93DF9300D000D00F92CDB7DEB786
:104D50009093990280939802811520E2920748F47B
:104D60000F900F900F900F900F90DF91CF910C94B8
:104D7000FF0C8EEF89838A8381E08B830E94F90484
:104D80008160782F9D838C8349815A816B818D81CD
:104D90000F900F900F900F900F90DF91CF910C9488
:104DA000C223CF93DF93EC010E94A1268091870359
:104DB000909188030E94BD0DCE01DF91CF910C949C
:104DC0001B260F931F93CF93DF938C01862F6CE3E9
:104DD00072E00E944112892BC9F4C0913C02D0912B
:104DE0003D02209799F0F8018081833069F4CE016B
:104DF0000E94D126CE010E94D126CE01DF91CF9113
:104E00001F910F910C94D1268430B8F7DF91CF9188
:104E10001F910F9108950F931F93CF93DF938C01F0
:104E2000EB016CE372E08C2F0E944112892B09F098
:104E300064C0FE01FF27D8018C91EC5CFD4F8130EE
:104E4000D9F419969C911997992311F080830CC07D
:104E50001A969C919923D1F382E0808380913E023F
:104E600090913F020097D9F480913C0290913D02CD
:104E7000009709F442C013C08230E9F519968C916D
:104E8000199781112DC01A968C9181110EC083E063
:104E900080838091400290914102009719F1DF9147
:104EA000CF911F910F910C94A12684E08083809173
:104EB000420290914302009791F780913C029091B9
:104EC0003D020097F9F00E94D12680913E02909118
:104ED0003F02009721F780913C0290913D02DFCF85
:104EE00085E0808380913C0290913D02009729F0FB
:104EF0000E94D126F0CF86E08083DF91CF911F9171
:104F00000F91089580913E0290913F02B1CF1F9280
:104F10000F920FB60F9211242F933F934F935F93ED
:104F20006F937F938F939F93AF93BF93CF93DF93B1
:104F3000EF93FF93D091E900DF708091EC00C82FD0
:104F4000C17080FDC0E81092E9008091F000877F79
:104F50008093F00078940E9419131092E9008091D8
:104F6000F00088608093F000CD2BCF70C093E900F3
:104F7000FF91EF91DF91CF91BF91AF919F918F9171
:104F80007F916F915F914F913F912F910F900FBE45
:104F90000F901F9018951F920F920FB60F92112429
:104FA0002F933F934F935F936F937F938F939F9331
:104FB000AF93BF93EF93FF938091E10082FF09C00D
:104FC0008091E20082FF05C08091E1008B7F809399
:104FD000E1008091DA0080FF24C08091D80080FF3A
:104FE00020C08091DA008E7F8093DA008091D90012
:104FF00080FF9DC080E189BD82E189BD09B400FECA
:10500000FDCF81E080937E0480915004811109C01E
:105010000E9423030E9416048091E2008460809322
:10502000E2008091E10080FF17C08091E20080FFE4
:1050300013C08091E2008E7F8093E2008091E200B5
:1050400080618093E2008091D80080628093D800D4
:1050500019BC85E080937E048091E10084FF2BC021
:105060008091E20084FF27C080E189BD82E189BD93
:1050700089B5982F917080FFFBCF8091D8008F7DEC
:105080008093D8008091E1008F7E8093E100809131
:10509000E2008F7E8093E2008091E2008160809345
:1050A000E20080917504882309F447C084E080936E
:1050B0007E0480917E048091E10083FF27C080916F
:1050C000E20083FF23C08091E100877F8093E100AD
:1050D00082E080937E04109275048091E1008E7FBF
:1050E0008093E1008091E2008E7F8093E2008091C6
:1050F000E20080618093E20042E060E080E00E9494
:10510000E4038091F00088608093F000FF91EF91BC
:10511000BF91AF919F918F917F916F915F914F91CF
:105120003F912F910F900FBE0F901F90189519BCB3
:1051300010927E041092500474CF8091E30087FD9A
:1051400093E090937E04B5CF78941F921FB61F9280
:1051500011248F939F93AF93BF93809147049091B5
:105160004804A0914904B0914A040196A11DB11DC3
:105170008093470490934804A0934904B0934A0451
:10518000BF91AF919F918F911F901FBE1F90189557
:105190001F921FB61F9211248F939F93AF93BF93BB
:1051A00080914604811113C0809147049091480476
:1051B000A0914904B0914A044196A11DB11D80936C
:1051C000470490934804A0934904B0934A04BF91C4
:1051D000AF919F918F911F901FBE1F901895CDB7D3
:1051E000DEB7E4970FB6F894DEBF0FBECDBF84B72D
:1051F000877F84BF0FB6F894A8958091600088617E
:1052000080936000109260000FBE80E890E00FB6BF
:10521000F89480936100909361000FBE85B7806819
:1052200085BF85B7806885BF8EEB97E09093750149
:10523000809374010E9455120E94AB120E94B30F1A
:105240000E9423030E9416048091E20084608093F0
:10525000E200789480917E048823A1F01091E90007
:105260001F709091EC00892F817090FD80E8182BC1
:105270001092E9008091E80083FD0E9419131F70CD
:105280001093E90082E084BD93E095BD9AEF97BD4D
:1052900080936E000E94A410811102C00E943212FD
:1052A00081E90E94C00780E90E94C00784E90E944A
:1052B000C00786E60E94C00708E511E0D8018D917D
:1052C0008D018F3F11F00E94C007B1E004361B072B
:1052D000A9F788E0EFE1F2E0DF01282F1D922A957F
:1052E000E9F7E9E0F2E0DF011D928A95E9F790E045
:1052F00080E00E94F22F8A3E9E4F21F40E94A4106B
:10530000811102C00E94ED1582E090E00E94EA2F18
:10531000809312020E94BD1090934C0480934B0422
:105320000E944322EFE3FCE93197F1F700C000004F
:105330000E94432280911F0280FF08C06FEF7FEF21
:1053400090E080E00E9416300E94D90483E090E053
:105350000E94EA2F0E94EF0B82E091E090934304B9
:10536000809342048E010F5F1F4F80917E0450E1B5
:10537000E52E62E1F62E853009F426C10E94432213
:10538000882359F08FB7F89440914704509148040E
:105390006091490470914A048FBFAFE1B2E0E3E14C
:1053A000F2E0F12CE12C7E2D8D919D912191319196
:1053B0002817390709F418C12827392760E0CC24B9
:1053C000C394D12CA60142235323452B09F406C1D3
:1053D0006BA77CA796012823392391E0232B09F49E
:1053E00090E09DA70E94F9048160782F9FA78EA767
:1053F0004BA55CA56DA58FA50E94C223F701EE0FFA
:10540000FF1FED5EFD4F80819181C826D926D18294
:10541000C08286E0EEE2F2E0D80101900D928A951A
:10542000E1F7C0903002D0903102E0903202F0906B
:105430003302109230021092310210923202109216
:1054400033028C2D8D2991F080912C0290912D02A8
:105450000E94EA04AC0190912802992309F4DDC06E
:10546000809114018417150608F4E5C08E2D8F294C
:1054700091F080912A0290912B020E94EA04AC01E3
:1054800090912702992309F415C180911001841786
:10549000150608F41DC18091300290913102892BCC
:1054A00090913202892B90913302892B11F00E9446
:1054B000140686E0F801AEE2B2E001900D928A9502
:1054C000E1F70E94900590911102891721F00E9446
:1054D00090058093110280917E04843009F045CFBD
:1054E00083E08093E9008091E80082FF3ECF8091C5
:1054F000E80090E085FF0AC00E94420370E2C72ED8
:10550000D12C7801882309F42CC191E08091E80026
:105510008B778093E800992309F427CFE0909A02D3
:10552000F0909B028981E114F10409F428C18E3FB7
:1055300009F0B2C18A81833020F08550833008F0B1
:10554000ABC1EA81EE3008F0A7C1F0E0E65AFF4CAB
:105550000C94A72F80917E04843021F11092460490
:1055600028E130E040E40FB6F894A895209360005D
:105570000FBE4093600083B7817F846083BF83B791
:10558000816083BF7894889583B78E7F83BF0FB681
:10559000F894A895809160008861809360001092D3
:1055A00060000FBE80917404882371F00E94432232
:1055B000EFE1F2E081919191892B09F04AC487E2F1
:1055C00092E08E179F07B1F780917E04853009F431
:1055D000C1CF0E9404130E949005D0CE6F5FCC0C07
:1055E000DD1C6C3009F0EECE9FEFE91AF90A24E0D9
:1055F000E216F10409F0D7CE8FEF88AB89AB1AAA77
:105600000E94F9048160782F9CAB8BAB48A959A903
:105610006AA98CA90E94C223FCCE209115018AE0C0
:10562000289F900111242417350708F01FCF9F5F92
:105630009093280202C09F3FD1F7CC2059F00E94DE
:10564000F7069FEF1C140CF491E0899F802D112424
:1056500080933002DD2059F00E94F7069FEF1D1461
:105660000CF491E0899F802D1124809331023091B8
:105670003002332309F4FACE20913102222309F4B7
:10568000F5CE45EB3403C0011124992359F09093D2
:10569000300245EB240390011124332339F0309379
:1056A0003102E4CE81E080933002F3CF81E0809339
:1056B0003102DCCE209111018AE0289F9001112453
:1056C0002417350708F0E7CE9F5F9093270202C0AA
:1056D0009F3FD1F7EE2059F00E94BE069FEF1E14A7
:1056E0000CF491E0899F802D112480933202FF20D9
:1056F00059F00E94BE069FEF1F140CF491E0899FA1
:10570000802D11248093330230913202332309F427
:10571000C2CE20913302222309F4BDCE45EB3403DF
:10572000C0011124992359F09093320245EB2403D0
:1057300090011124332339F030933302ACCE81E051
:1057400080933202F3CF81E080933302A4CE809124
:10575000F100D7018D937D01B1E0CB1AD10809F496
:10576000D4CE8091E80085FDF2CF8091E8008B7760
:105770008093E8000E944203882399F3C6CE8C30C0
:1057800009F4E1C048F5843009F4C4C050F4823013
:1057900009F468C008F0AFC0813009F45FC08FEF32
:1057A00084C3863009F4CCC008F4BFC08B30B9F78D
:1057B0008091960290919702892B09F46DC0C801DF
:1057C0000E949D03FFEF21EE34E0F1502040304075
:1057D000E1F700C00000B8CD803109F4E5C090F5D4
:1057E0008E3009F4B7C008F4B1C080919602909150
:1057F0009702892B09F450C0EC80F12C3DE1E316AF
:10580000F10408F049C0CA80DB80DC24CD24DC240C
:105810005801E00EF11EC60187599D4FEA14FB04A2
:10582000D9F147E9C41641E0D40628F4D50114960D
:105830006C910E94F82FBFEFAB1ABB0AEFEFCE1AA4
:10584000DE0AE9CF823109F4B4C008F4B0C0833174
:1058500009F4D8C08E3F09F0A2CF73CE1A8289E036
:105860008B831AC08A81823009F441C38330C1F02E
:10587000813009F094CF2FB7F8946091470470916C
:1058800048048091490490914A042FBF0E94AD2F93
:105890006B837C838D839E83C8010E949D0365CDAD
:1058A0008091960290919702892BB1F380911F020B
:1058B000909120029827892798279C838B83809139
:1058C0002102909122029827892798279E838D8311
:1058D00080912302909124029827892798279887FE
:1058E0008F838091250290912602982789279827F7
:1058F0009A878987D1CF8A81823009F050CF6B8116
:105900007C818D819E810E94AD2F86E290E00E9475
:10591000F82FC2CF4C816B818A810E94D90F9827C2
:10592000892798279E838D83B7CF2D813E8132278B
:10593000232732274C816B818A810E943911ACCF99
:105940000E94A311A9CF80E18A83A6CF81E08A8338
:1059500087E986CFEC80F12CEDE1EE16F10408F03A
:105960009BCFCA80DB80DC24CD24DC245801E00EF0
:10597000F11EC60187599D4FEA14FB0409F48CCF30
:10598000F7E9CF16F1E0DF0660F40E94EA2FD501B7
:1059900014968C93FFEFCF1ADF0A2FEFA21AB20AE8
:1059A000E8CFF5011482F6CF0E94291175CF84E06B
:1059B000CBCFEC80F12CFDE1EF16F10408F06CCFB9
:1059C000CA80DB80DC24CD24DC245801E00EF11EEB
:1059D000C6018796EA14FB0409F45ECF20E8C216DC
:1059E00021E0D20660F40E94EA2FD50114968C9330
:1059F000FFEFCF1ADF0A2FEFA21AB20AE9CFF501A3
:105A00001482F6CFCC80D12C3DE1C316D10408F02E
:105A100043CFEA80FB80FE24EF24FE2440E8E41616
:105A200041E0F40608F038CF80E891E08E199F0934
:105A30008C159D0508F430CF370187E2680E711C84
:105A4000809196029091970227014C0C5D1C892B46
:105A5000A1F5570191E0A922BB24E0FE0DC0C701CA
:105A600086960E94EA2F9D8189279827892781158C
:105A70009C4511F48FEF8D83460140FE17C0B1E0C5
:105A80008B1A910865E0262E312C2C0E3D1E280C19
:105A9000391CC3018C0D9D1D0E94EA2FF1019081DC
:105AA00081159C4519F48FEFD1018C93F801EA0D13
:105AB000FB1D2FEFA814B90410F068011CC09481DD
:105AC000858181159C4511F42483258332E0A30E42
:105AD000B11C3296EFCF40E8E41641E0F40628F41A
